{
  "contractName": "SocialNetwork",
  "abi": [
    {
      "inputs": [],
      "payable": false,
      "stateMutability": "nonpayable",
      "type": "constructor"
    },
    {
      "constant": true,
      "inputs": [],
      "name": "name",
      "outputs": [
        {
          "internalType": "string",
          "name": "",
          "type": "string"
        }
      ],
      "payable": false,
      "stateMutability": "view",
      "type": "function"
    },
    {
      "constant": true,
      "inputs": [],
      "name": "postCount",
      "outputs": [
        {
          "internalType": "uint256",
          "name": "",
          "type": "uint256"
        }
      ],
      "payable": false,
      "stateMutability": "view",
      "type": "function"
    },
    {
      "constant": true,
      "inputs": [
        {
          "internalType": "uint256",
          "name": "",
          "type": "uint256"
        }
      ],
      "name": "posts",
      "outputs": [
        {
          "internalType": "uint256",
          "name": "id",
          "type": "uint256"
        },
        {
          "internalType": "string",
          "name": "content",
          "type": "string"
        },
        {
          "internalType": "uint256",
          "name": "tipAmount",
          "type": "uint256"
        },
        {
          "internalType": "address",
          "name": "author",
          "type": "address"
        }
      ],
      "payable": false,
      "stateMutability": "view",
      "type": "function"
    },
    {
      "constant": false,
      "inputs": [
        {
          "internalType": "string",
          "name": "_content",
          "type": "string"
        }
      ],
      "name": "createPost",
      "outputs": [],
      "payable": false,
      "stateMutability": "nonpayable",
      "type": "function"
    }
  ],
  "bytecode": "0x6080604052600060015534801561001557600080fd5b506040518060400160405280600e81526020017f536f6369616c204e6574776f726b00000000000000000000000000000000000081525060009080519060200190610061929190610067565b5061010c565b828054600181600116156101000203166002900490600052602060002090601f016020900481019282601f106100a857805160ff19168380011785556100d6565b828001600101855582156100d6579182015b828111156100d55782518255916020019190600101906100ba565b5b5090506100e391906100e7565b5090565b61010991905b808211156101055760008160009055506001016100ed565b5090565b90565b6105da8061011b6000396000f3fe608060405234801561001057600080fd5b506004361061004c5760003560e01c806306fdde03146100515780630b1e7f83146100d457806317906c2e146101bc578063c7303c61146101da575b600080fd5b610059610295565b6040518080602001828103825283818151815260200191508051906020019080838360005b8381101561009957808201518184015260208101905061007e565b50505050905090810190601f1680156100c65780820380516001836020036101000a031916815260200191505b509250505060405180910390f35b610100600480360360208110156100ea57600080fd5b8101908080359060200190929190505050610333565b60405180858152602001806020018481526020018373ffffffffffffffffffffffffffffffffffffffff1673ffffffffffffffffffffffffffffffffffffffff168152602001828103825285818151815260200191508051906020019080838360005b8381101561017e578082015181840152602081019050610163565b50505050905090810190601f1680156101ab5780820380516001836020036101000a031916815260200191505b509550505050505060405180910390f35b6101c461041b565b6040518082815260200191505060405180910390f35b610293600480360360208110156101f057600080fd5b810190808035906020019064010000000081111561020d57600080fd5b82018360208201111561021f57600080fd5b8035906020019184600183028401116401000000008311171561024157600080fd5b91908080601f016020809104026020016040519081016040528093929190818152602001838380828437600081840152601f19601f820116905080830192505050505050509192919290505050610421565b005b60008054600181600116156101000203166002900480601f01602080910402602001604051908101604052809291908181526020018280546001816001161561010002031660029004801561032b5780601f106103005761010080835404028352916020019161032b565b820191906000526020600020905b81548152906001019060200180831161030e57829003601f168201915b505050505081565b6002602052806000526040600020600091509050806000015490806001018054600181600116156101000203166002900480601f0160208091040260200160405190810160405280929190818152602001828054600181600116156101000203166002900480156103e55780601f106103ba576101008083540402835291602001916103e5565b820191906000526020600020905b8154815290600101906020018083116103c857829003601f168201915b5050505050908060020154908060030160009054906101000a900473ffffffffffffffffffffffffffffffffffffffff16905084565b60015481565b60016000815480929190600101919050555060405180608001604052806001548152602001828152602001600081526020013373ffffffffffffffffffffffffffffffffffffffff168152506002600060015481526020019081526020016000206000820151816000015560208201518160010190805190602001906104a8929190610500565b506040820151816002015560608201518160030160006101000a81548173ffffffffffffffffffffffffffffffffffffffff021916908373ffffffffffffffffffffffffffffffffffffffff16021790555090505050565b828054600181600116156101000203166002900490600052602060002090601f016020900481019282601f1061054157805160ff191683800117855561056f565b8280016001018555821561056f579182015b8281111561056e578251825591602001919060010190610553565b5b50905061057c9190610580565b5090565b6105a291905b8082111561059e576000816000905550600101610586565b5090565b9056fea265627a7a72315820104bfdc4b6ca933384c861694f99d5b3bab76023403bb30b8f571ded7833a51564736f6c63430005100032",
  "source": "pragma solidity ^0.5.0;\n\n\ncontract SocialNetwork {\n\n  // By giving this var a public visibility modifier Solidity will give us a free function to be able to read this variable\n    // We can simply call name()\n  string public name;\n  uint public postCount = 0;\n\n  // KEY = uint (id of the post), VALUE = struct (the Post)\n  // Declare public so we can fetch posts from the mapping later\n  mapping(uint => Post) public posts;\n\n\n  // How do we create the post itself? Where is it stored? Here we use a data structure called a struct\n  // To model your struct, simply think about all of the data your app's functionality requires and include it\n  struct Post {\n    // Unique Id for posts\n    uint id;\n    // Post content\n    string content;\n    // Tip\n    uint tipAmount;\n    // Address of author to send tips to\n    address author;\n  }\n\n  constructor() public {\n    name = \"Social Network\";\n\n  }\n\n  // Pass in a string variable 'content' that has the value of the users' content  \n  function createPost(string memory _content) public {\n    // Creat a new _id for every post that is created - using a counter cache\n    // First we create a state var with initial value of 0\n    // Everytime a new post is created, that var is incremented by 1 with the new value being assigned to the newly created post\n    // We assign the new _id to the new post by passing it in below as the postCount\n      // postCount is passed into the new post and becomes the new id for said post\n      // The next time around, the postCount will be incremented by 1 and assigned all over again\n    postCount ++;\n    // Instantiate the Post\n      // Pass in the args from the data structure\n    //_post = Post(postCount, _content, 0, msg.sender);\n    // Find a home for the new Post...\n    // Pass in the id where the post will be stored (because the mapping KEY where is is stored is the Id)\n    // mappingName[_id(KeyToPassToMapping)] = _post (that we just created above)\n    //posts[postCount] = _post;\n    // We can consolidate lines 45 & 49 to create post and save to blockchain all in one line like so:\n    // mapping[key] = value\n    // msg.sender will be saved as the author value inside of the struct which will be saved inside of the post mapping\n    posts[postCount] = Post(postCount, _content, 0, msg.sender);\n  }\n\n}\n\n\n",
  "sourcePath": "/Users/steveboyer/Code/Apps/social-network/src/contracts/SocialNetwork.sol",
  "compiler": {
    "name": "solc",
    "version": "0.5.16+commit.9c3226ce.Emscripten.clang"
  },
  "schemaVersion": "3.4.5",
  "updatedAt": "2022-03-04T19:25:30.519Z",
  "networkType": "ethereum",
  "devdoc": {
    "methods": {}
  },
  "userdoc": {
    "methods": {}
  }
}